:100000000C9434000C943E000C943E000C943E0082
:100010000C943E000C943E000C943E000C943E0068
:100020000C943E000C943E000C943E000C943E0058
:100030000C943E000C943E000C943E000C943E0048
:100040000C943E000C943E000C943E000C943E0038
:100050000C943E000C943E000C943E000C943E0028
:100060000C943E000C943E0011241FBECFEFD8E04C
:10007000DEBFCDBF0E9440000C944F000C940000E6
:100080008AB18F7B8AB984B1886084B94E99FECFDA
:1000900095B188E0892785B94E9BFECFF7CFF894BC
:0200A000FFCF90
:00000001FF
