S020000030345F74696D6572305F64656C61795F6D6574686F645F312E7372656312
S11300000C9434000C943E000C943E000C943E007E
S11300100C943E000C943E000C943E000C943E0064
S11300200C943E000C943E000C943E000C943E0054
S11300300C943E000C943E000C943E000C943E0044
S11300400C943E000C943E000C943E000C943E0034
S11300500C943E000C943E000C943E000C943E0024
S11300600C943E000C943E0011241FBECFEFD8E048
S1130070DEBFCDBF0E9452000C945E000C940000C1
S113008084B58C7F84BD85B5856085BD089590E079
S113009006C0A89BFECF85B3816085BB9F5F9E335E
S11300A0C0F308950E94400084B1806284B995B180
S11300B080E2892785B90E944700F9CFF894FFCFE1
S9030000FC
