S01F000030325F315F70756C6C5F646F776E5F72656769737465722E737265631C
S11300000C9434000C943E000C943E000C943E007E
S11300100C943E000C943E000C943E000C943E0064
S11300200C943E000C943E000C943E000C943E0054
S11300300C943E000C943E000C943E000C943E0044
S11300400C943E000C943E000C943E000C943E0034
S11300500C943E000C943E000C943E000C943E0024
S11300600C943E000C943E0011241FBECFEFD8E048
S1130070DEBFCDBF0E9440000C9452000C940000DF
S11300808AB18F7D8AB984B1806284B94D9BFECFD9
S113009095B180E2892785B989B1807289B98111C6
S10B00A0FBCFF4CFF894FFCF6D
S9030000FC
